{
  "contractName": "Campaigns",
  "abi": [
    {
      "inputs": [
        {
          "name": "_tokenAddr",
          "type": "address"
        }
      ],
      "payable": false,
      "stateMutability": "nonpayable",
      "type": "constructor"
    },
    {
      "anonymous": false,
      "inputs": [
        {
          "indexed": false,
          "name": "id",
          "type": "uint256"
        }
      ],
      "name": "Added",
      "type": "event"
    },
    {
      "anonymous": false,
      "inputs": [
        {
          "indexed": false,
          "name": "id",
          "type": "uint256"
        }
      ],
      "name": "Accepted",
      "type": "event"
    },
    {
      "anonymous": false,
      "inputs": [
        {
          "indexed": false,
          "name": "id",
          "type": "uint256"
        },
        {
          "indexed": false,
          "name": "invester",
          "type": "address"
        },
        {
          "indexed": false,
          "name": "token",
          "type": "uint256"
        }
      ],
      "name": "Invested",
      "type": "event"
    },
    {
      "anonymous": false,
      "inputs": [
        {
          "indexed": false,
          "name": "id",
          "type": "uint256"
        },
        {
          "indexed": false,
          "name": "investor",
          "type": "address"
        },
        {
          "indexed": false,
          "name": "token",
          "type": "uint256"
        }
      ],
      "name": "Refund",
      "type": "event"
    },
    {
      "anonymous": false,
      "inputs": [
        {
          "indexed": false,
          "name": "id",
          "type": "uint256"
        },
        {
          "indexed": false,
          "name": "ownerCampaign",
          "type": "address"
        },
        {
          "indexed": false,
          "name": "token",
          "type": "uint256"
        }
      ],
      "name": "Paid",
      "type": "event"
    },
    {
      "constant": true,
      "inputs": [
        {
          "name": "_index",
          "type": "uint256"
        }
      ],
      "name": "getInfo",
      "outputs": [
        {
          "name": "name",
          "type": "string"
        },
        {
          "name": "startDate",
          "type": "uint256"
        },
        {
          "name": "endDate",
          "type": "uint256"
        },
        {
          "name": "goal",
          "type": "uint256"
        },
        {
          "name": "collected",
          "type": "uint256"
        },
        {
          "name": "owner",
          "type": "address"
        },
        {
          "name": "finStatus",
          "type": "uint8"
        },
        {
          "name": "status",
          "type": "uint8"
        }
      ],
      "payable": false,
      "stateMutability": "view",
      "type": "function"
    },
    {
      "constant": false,
      "inputs": [
        {
          "name": "_name",
          "type": "string"
        },
        {
          "name": "_days",
          "type": "uint256"
        },
        {
          "name": "_goal",
          "type": "uint256"
        }
      ],
      "name": "createCampaign",
      "outputs": [],
      "payable": false,
      "stateMutability": "nonpayable",
      "type": "function"
    },
    {
      "constant": true,
      "inputs": [
        {
          "name": "_i",
          "type": "uint256"
        }
      ],
      "name": "getNumberOfInvestors",
      "outputs": [
        {
          "name": "result",
          "type": "uint256"
        }
      ],
      "payable": false,
      "stateMutability": "view",
      "type": "function"
    },
    {
      "constant": false,
      "inputs": [
        {
          "name": "_i",
          "type": "uint256"
        }
      ],
      "name": "acceptCampaign",
      "outputs": [],
      "payable": false,
      "stateMutability": "nonpayable",
      "type": "function"
    },
    {
      "constant": false,
      "inputs": [
        {
          "name": "_i",
          "type": "uint256"
        },
        {
          "name": "_token",
          "type": "uint256"
        }
      ],
      "name": "invest",
      "outputs": [],
      "payable": false,
      "stateMutability": "nonpayable",
      "type": "function"
    },
    {
      "constant": false,
      "inputs": [
        {
          "name": "_i",
          "type": "uint256"
        },
        {
          "name": "_token",
          "type": "uint256"
        }
      ],
      "name": "claimRefund",
      "outputs": [],
      "payable": false,
      "stateMutability": "nonpayable",
      "type": "function"
    },
    {
      "constant": false,
      "inputs": [
        {
          "name": "_i",
          "type": "uint256"
        }
      ],
      "name": "endCampaign",
      "outputs": [],
      "payable": false,
      "stateMutability": "nonpayable",
      "type": "function"
    },
    {
      "constant": true,
      "inputs": [
        {
          "name": "_i",
          "type": "uint256"
        },
        {
          "name": "_addr",
          "type": "address"
        }
      ],
      "name": "getInvest",
      "outputs": [
        {
          "name": "",
          "type": "uint256"
        }
      ],
      "payable": false,
      "stateMutability": "view",
      "type": "function"
    },
    {
      "constant": true,
      "inputs": [
        {
          "name": "_addr",
          "type": "address"
        }
      ],
      "name": "getTotalInvest",
      "outputs": [
        {
          "name": "",
          "type": "uint256"
        }
      ],
      "payable": false,
      "stateMutability": "view",
      "type": "function"
    },
    {
      "constant": true,
      "inputs": [
        {
          "name": "_i",
          "type": "uint256"
        }
      ],
      "name": "getStatus",
      "outputs": [
        {
          "name": "",
          "type": "uint8"
        }
      ],
      "payable": false,
      "stateMutability": "view",
      "type": "function"
    },
    {
      "constant": true,
      "inputs": [
        {
          "name": "_i",
          "type": "uint256"
        }
      ],
      "name": "getFinStatus",
      "outputs": [
        {
          "name": "",
          "type": "uint8"
        }
      ],
      "payable": false,
      "stateMutability": "view",
      "type": "function"
    },
    {
      "constant": true,
      "inputs": [],
      "name": "length",
      "outputs": [
        {
          "name": "",
          "type": "uint256"
        }
      ],
      "payable": false,
      "stateMutability": "view",
      "type": "function"
    }
  ],
  "bytecode": "0x608060405234801561001057600080fd5b506040516020806123488339810180604052602081101561003057600080fd5b8101908080519060200190929190505050806000806101000a81548173ffffffffffffffffffffffffffffffffffffffff021916908373ffffffffffffffffffffffffffffffffffffffff160217905550506122b7806100916000396000f3fe608060405234801561001057600080fd5b50600436106100b45760003560e01c80638527d58f116100715780638527d58f14610394578063d87aa643146103cc578063dd0408ae14610404578063eb2fee9114610432578063f1b70b7014610494578063fe3a3802146104ec576100b4565b8063073fbf8a146100b95780631a3cd59a146100e75780631f7b6d32146102075780633020580b146102255780635c622a0e146102f45780636d7152fb14610344575b600080fd5b6100e5600480360360208110156100cf57600080fd5b810190808035906020019092919050505061052e565b005b610113600480360360208110156100fd57600080fd5b81019080803590602001909291905050506106f2565b60405180806020018981526020018881526020018781526020018681526020018573ffffffffffffffffffffffffffffffffffffffff1673ffffffffffffffffffffffffffffffffffffffff16815260200184600281111561017157fe5b60ff16815260200183600281111561018557fe5b60ff16815260200182810382528a818151815260200191508051906020019080838360005b838110156101c55780820151818401526020810190506101aa565b50505050905090810190601f1680156101f25780820380516001836020036101000a031916815260200191505b50995050505050505050505060405180910390f35b61020f6108c1565b6040518082815260200191505060405180910390f35b6102f26004803603606081101561023b57600080fd5b810190808035906020019064010000000081111561025857600080fd5b82018360208201111561026a57600080fd5b8035906020019184600183028401116401000000008311171561028c57600080fd5b91908080601f016020809104026020016040519081016040528093929190818152602001838380828437600081840152601f19601f82011690508083019250505050505050919291929080359060200190929190803590602001909291905050506108ce565b005b6103206004803603602081101561030a57600080fd5b8101908080359060200190929190505050610b1a565b6040518082600281111561033057fe5b60ff16815260200191505060405180910390f35b6103706004803603602081101561035a57600080fd5b8101908080359060200190929190505050610ba2565b6040518082600281111561038057fe5b60ff16815260200191505060405180910390f35b6103ca600480360360408110156103aa57600080fd5b810190808035906020019092919080359060200190929190505050610bd7565b005b610402600480360360408110156103e257600080fd5b810190808035906020019092919080359060200190929190505050610ef2565b005b6104306004803603602081101561041a57600080fd5b8101908080359060200190929190505050611824565b005b61047e6004803603604081101561044857600080fd5b8101908080359060200190929190803573ffffffffffffffffffffffffffffffffffffffff169060200190929190505050611d0e565b6040518082815260200191505060405180910390f35b6104d6600480360360208110156104aa57600080fd5b81019080803573ffffffffffffffffffffffffffffffffffffffff169060200190929190505050611d74565b6040518082815260200191505060405180910390f35b6105186004803603602081101561050257600080fd5b8101908080359060200190929190505050611f30565b6040518082815260200191505060405180910390f35b6000809054906101000a900473ffffffffffffffffffffffffffffffffffffffff1673ffffffffffffffffffffffffffffffffffffffff166324d7806c336040518263ffffffff1660e01b8152600401808273ffffffffffffffffffffffffffffffffffffffff1673ffffffffffffffffffffffffffffffffffffffff16815260200191505060206040518083038186803b1580156105cc57600080fd5b505afa1580156105e0573d6000803e3d6000fd5b505050506040513d60208110156105f657600080fd5b8101908080519060200190929190505050610679576040517f08c379a00000000000000000000000000000000000000000000000000000000081526004018080602001828103825260148152602001807f596f75204d55535420626520766572696669657200000000000000000000000081525060200191505060405180910390fd5b600180828154811061068757fe5b90600052602060002090600a020160060160006101000a81548160ff021916908360028111156106b357fe5b02179055507f8803fc454569835e33f189a26b5ffa0e12e0bbe753c5ecde5d0fe8c8aafb7e0f816040518082815260200191505060405180910390a150565b606060008060008060008060006001898154811061070c57fe5b90600052602060002090600a02016000018054600181600116156101000203166002900480601f0160208091040260200160405190810160405280929190818152602001828054600181600116156101000203166002900480156107b15780601f10610786576101008083540402835291602001916107b1565b820191906000526020600020905b81548152906001019060200180831161079457829003601f168201915b50505050509750600189815481106107c557fe5b90600052602060002090600a0201600201549650600189815481106107e657fe5b90600052602060002090600a02016003015495506001898154811061080757fe5b90600052602060002090600a02016004015494506001898154811061082857fe5b90600052602060002090600a02016005015493506001898154811061084957fe5b90600052602060002090600a020160010160009054906101000a900473ffffffffffffffffffffffffffffffffffffffff1692506001898154811061088a57fe5b90600052602060002090600a020160060160009054906101000a900460ff1691506108b489610b1a565b9050919395975091939597565b6000600180549050905090565b6103e881101580156108e45750633b9aca008111155b610939576040517f08c379a000000000000000000000000000000000000000000000000000000000815260040180806020018281038252604f8152602001806121e9604f913960600191505060405180910390fd5b610941611f9a565b83816000018190525033816020019073ffffffffffffffffffffffffffffffffffffffff16908173ffffffffffffffffffffffffffffffffffffffff168152505042816040018181525050603c830242018160600181815250508181608001818152505060008160a001818152505060018160c0019060028111156109c257fe5b908160028111156109cf57fe5b815250506001819080600181540180825580915050906001820390600052602060002090600a0201600090919290919091506000820151816000019080519060200190610a1d929190612000565b5060208201518160010160006101000a81548173ffffffffffffffffffffffffffffffffffffffff021916908373ffffffffffffffffffffffffffffffffffffffff16021790555060408201518160020155606082015181600301556080820151816004015560a0820151816005015560c08201518160060160006101000a81548160ff02191690836002811115610ab157fe5b021790555060e0820151816007019080519060200190610ad2929190612080565b505050507f64a55044d1f2eddebe1b90e8e2853e8e96931cefadbfa0b2ceb34bee3606194160018080549050036040518082815260200191505060405180910390a150505050565b600060018281548110610b2957fe5b90600052602060002090600a020160030154421015610b4b5760009050610b9d565b60018281548110610b5857fe5b90600052602060002090600a02016004015460018381548110610b7757fe5b90600052602060002090600a0201600501541015610b985760019050610b9d565b600290505b919050565b600060018281548110610bb157fe5b90600052602060002090600a020160060160009054906101000a900460ff169050919050565b60008111610c30576040517f08c379a00000000000000000000000000000000000000000000000000000000081526004018080602001828103825260298152602001806121c06029913960400191505060405180910390fd5b8060018381548110610c3e57fe5b90600052602060002090600a020160080160003373ffffffffffffffffffffffffffffffffffffffff1673ffffffffffffffffffffffffffffffffffffffff168152602001908152602001600020541015610ce4576040517f08c379a00000000000000000000000000000000000000000000000000000000081526004018080602001828103825260258152602001806122676025913960400191505060405180910390fd5b60006002811115610cf157fe5b610cfa83610b1a565b6002811115610d0557fe5b14610d5b576040517f08c379a000000000000000000000000000000000000000000000000000000000815260040180806020018281038252602f815260200180612238602f913960400191505060405180910390fd5b610dc98160018481548110610d6c57fe5b90600052602060002090600a020160080160003373ffffffffffffffffffffffffffffffffffffffff1673ffffffffffffffffffffffffffffffffffffffff16815260200190815260200160002054611f5b90919063ffffffff16565b60018381548110610dd657fe5b90600052602060002090600a020160080160003373ffffffffffffffffffffffffffffffffffffffff1673ffffffffffffffffffffffffffffffffffffffff16815260200190815260200160002081905550610e598160018481548110610e3957fe5b90600052602060002090600a020160050154611f5b90919063ffffffff16565b60018381548110610e6657fe5b90600052602060002090600a0201600501819055507f21e12a7cad0da5928167e1084ea4d5fdf8d9af66657a2543a9ac76a0ca081477823383604051808481526020018373ffffffffffffffffffffffffffffffffffffffff1673ffffffffffffffffffffffffffffffffffffffff168152602001828152602001935050505060405180910390a15050565b610efa611f9a565b60018381548110610f0757fe5b90600052602060002090600a020160405180610100016040529081600082018054600181600116156101000203166002900480601f016020809104026020016040519081016040528092919081815260200182805460018160011615610100020316600290048015610fba5780601f10610f8f57610100808354040283529160200191610fba565b820191906000526020600020905b815481529060010190602001808311610f9d57829003601f168201915b505050505081526020016001820160009054906101000a900473ffffffffffffffffffffffffffffffffffffffff1673ffffffffffffffffffffffffffffffffffffffff1673ffffffffffffffffffffffffffffffffffffffff168152602001600282015481526020016003820154815260200160048201548152602001600582015481526020016006820160009054906101000a900460ff16600281111561105f57fe5b600281111561106a57fe5b8152602001600782018054806020026020016040519081016040528092919081815260200182805480156110f357602002820191906000526020600020905b8160009054906101000a900473ffffffffffffffffffffffffffffffffffffffff1673ffffffffffffffffffffffffffffffffffffffff16815260200190600101908083116110a9575b505050505081525050905060008211611157576040517f08c379a00000000000000000000000000000000000000000000000000000000081526004018080602001828103825260298152602001806121c06029913960400191505060405180910390fd5b80606001514211156111d1576040517f08c379a00000000000000000000000000000000000000000000000000000000081526004018080602001828103825260118152602001807f43616d706169676e20697320656e64656400000000000000000000000000000081525060200191505060405180910390fd5b80608001518160a001511061124e576040517f08c379a00000000000000000000000000000000000000000000000000000000081526004018080602001828103825260188152602001807f43616d706169676e206973207265616368656420676f616c000000000000000081525060200191505060405180910390fd5b8060800151828260a001510111156112ce576040517f08c379a000000000000000000000000000000000000000000000000000000000815260040180806020018281038252601f8152602001807f416d6f756e7420776974686f757420676f616c206f662063616d706169676e0081525060200191505060405180910390fd5b600160028111156112db57fe5b600184815481106112e857fe5b90600052602060002090600a020160060160009054906101000a900460ff16600281111561131257fe5b14611368576040517f08c379a000000000000000000000000000000000000000000000000000000000815260040180806020018281038252602b815260200180612195602b913960400191505060405180910390fd5b61137133611d74565b6000809054906101000a900473ffffffffffffffffffffffffffffffffffffffff1673ffffffffffffffffffffffffffffffffffffffff166327e235e3336040518263ffffffff1660e01b8152600401808273ffffffffffffffffffffffffffffffffffffffff1673ffffffffffffffffffffffffffffffffffffffff16815260200191505060206040518083038186803b15801561140f57600080fd5b505afa158015611423573d6000803e3d6000fd5b505050506040513d602081101561143957600080fd5b8101908080519060200190929190505050038211156114c0576040517f08c379a000000000000000000000000000000000000000000000000000000000815260040180806020018281038252601b8152602001807f596f7520646f6e2774206861766520656e6f75676820746f6b656e000000000081525060200191505060405180910390fd5b61152e82600185815481106114d157fe5b90600052602060002090600a020160080160003373ffffffffffffffffffffffffffffffffffffffff1673ffffffffffffffffffffffffffffffffffffffff16815260200190815260200160002054611f7b90919063ffffffff16565b6001848154811061153b57fe5b90600052602060002090600a020160080160003373ffffffffffffffffffffffffffffffffffffffff1673ffffffffffffffffffffffffffffffffffffffff168152602001908152602001600020819055506001838154811061159a57fe5b90600052602060002090600a020160090160003373ffffffffffffffffffffffffffffffffffffffff1673ffffffffffffffffffffffffffffffffffffffff16815260200190815260200160002060009054906101000a900460ff1661175957600260003373ffffffffffffffffffffffffffffffffffffffff1673ffffffffffffffffffffffffffffffffffffffff168152602001908152602001600020839080600181540180825580915050906001820390600052602060002001600090919290919091505550600180848154811061167157fe5b90600052602060002090600a020160090160003373ffffffffffffffffffffffffffffffffffffffff1673ffffffffffffffffffffffffffffffffffffffff16815260200190815260200160002060006101000a81548160ff021916908315150217905550600183815481106116e357fe5b90600052602060002090600a02016007013390806001815401808255809150509060018203906000526020600020016000909192909190916101000a81548173ffffffffffffffffffffffffffffffffffffffff021916908373ffffffffffffffffffffffffffffffffffffffff160217905550505b61178a826001858154811061176a57fe5b90600052602060002090600a020160050154611f7b90919063ffffffff16565b6001848154811061179757fe5b90600052602060002090600a0201600501819055507f85e040b1b514c2f60555b8b931138cd55218c914496a8fcf822858bd240df422833384604051808481526020018373ffffffffffffffffffffffffffffffffffffffff1673ffffffffffffffffffffffffffffffffffffffff168152602001828152602001935050505060405180910390a1505050565b6001818154811061183157fe5b90600052602060002090600a020160010160009054906101000a900473ffffffffffffffffffffffffffffffffffffffff1673ffffffffffffffffffffffffffffffffffffffff163373ffffffffffffffffffffffffffffffffffffffff16146118e6576040517f08c379a00000000000000000000000000000000000000000000000000000000081526004018080602001828103825260228152602001806121736022913960400191505060405180910390fd5b6002808111156118f257fe5b6118fb82610b1a565b600281111561190657fe5b14611979576040517f08c379a00000000000000000000000000000000000000000000000000000000081526004018080602001828103825260188152602001807f43616d706169676e204d5553542062652073756363656564000000000000000081525060200191505060405180910390fd5b6000600281111561198657fe5b6001828154811061199357fe5b90600052602060002090600a020160060160009054906101000a900460ff1660028111156119bd57fe5b1415611a31576040517f08c379a00000000000000000000000000000000000000000000000000000000081526004018080602001828103825260178152602001807f43616d706169676e204d5553542062652076657269667900000000000000000081525060200191505060405180910390fd5b600280811115611a3d57fe5b60018281548110611a4a57fe5b90600052602060002090600a020160060160009054906101000a900460ff166002811115611a7457fe5b1415611ae8576040517f08c379a00000000000000000000000000000000000000000000000000000000081526004018080602001828103825260158152602001807f43616d706169676e20616c72656164792070616964000000000000000000000081525060200191505060405180910390fd5b600260018281548110611af757fe5b90600052602060002090600a020160060160006101000a81548160ff02191690836002811115611b2357fe5b02179055506000809054906101000a900473ffffffffffffffffffffffffffffffffffffffff1673ffffffffffffffffffffffffffffffffffffffff16631fa207ee823360018581548110611b7457fe5b90600052602060002090600a0201600501546040518463ffffffff1660e01b8152600401808481526020018373ffffffffffffffffffffffffffffffffffffffff1673ffffffffffffffffffffffffffffffffffffffff1681526020018281526020019350505050602060405180830381600087803b158015611bf657600080fd5b505af1158015611c0a573d6000803e3d6000fd5b505050506040513d6020811015611c2057600080fd5b8101908080519060200190929190505050611c79576001808281548110611c4357fe5b90600052602060002090600a020160060160006101000a81548160ff02191690836002811115611c6f57fe5b0217905550611d0b565b7f4f2d18324ee95128de091ed2adc501295479000ce4c2cec607aeb1b67e189e2f813360018481548110611ca957fe5b90600052602060002090600a020160050154604051808481526020018373ffffffffffffffffffffffffffffffffffffffff1673ffffffffffffffffffffffffffffffffffffffff168152602001828152602001935050505060405180910390a15b50565b600060018381548110611d1d57fe5b90600052602060002090600a020160080160008373ffffffffffffffffffffffffffffffffffffffff1673ffffffffffffffffffffffffffffffffffffffff16815260200190815260200160002054905092915050565b600080600090506060600260008573ffffffffffffffffffffffffffffffffffffffff1673ffffffffffffffffffffffffffffffffffffffff168152602001908152602001600020805480602002602001604051908101604052809291908181526020018280548015611e0657602002820191906000526020600020905b815481526020019060010190808311611df2575b5050505050905060008090505b8151811015611f255760016002811115611e2957fe5b611e3282610b1a565b6002811115611e3d57fe5b14611f1857600060018281548110611e5157fe5b90600052602060002090600a020160080160008773ffffffffffffffffffffffffffffffffffffffff1673ffffffffffffffffffffffffffffffffffffffff168152602001908152602001600020541115611f1757611f1460018281548110611eb657fe5b90600052602060002090600a020160080160008773ffffffffffffffffffffffffffffffffffffffff1673ffffffffffffffffffffffffffffffffffffffff1681526020019081526020016000205484611f7b90919063ffffffff16565b92505b5b8080600101915050611e13565b508192505050919050565b600060018281548110611f3f57fe5b90600052602060002090600a0201600701805490509050919050565b600082821115611f6a57600080fd5b600082840390508091505092915050565b600080828401905083811015611f9057600080fd5b8091505092915050565b60405180610100016040528060608152602001600073ffffffffffffffffffffffffffffffffffffffff1681526020016000815260200160008152602001600081526020016000815260200160006002811115611ff357fe5b8152602001606081525090565b828054600181600116156101000203166002900490600052602060002090601f016020900481019282601f1061204157805160ff191683800117855561206f565b8280016001018555821561206f579182015b8281111561206e578251825591602001919060010190612053565b5b50905061207c919061210a565b5090565b8280548282559060005260206000209081019282156120f9579160200282015b828111156120f85782518260006101000a81548173ffffffffffffffffffffffffffffffffffffffff021916908373ffffffffffffffffffffffffffffffffffffffff160217905550916020019190600101906120a0565b5b509050612106919061212f565b5090565b61212c91905b80821115612128576000816000905550600101612110565b5090565b90565b61216f91905b8082111561216b57600081816101000a81549073ffffffffffffffffffffffffffffffffffffffff021916905550600101612135565b5090565b9056fe546869732066756e6374696f6e204d5553542062652072756e206279206f776e6572546869732063616d706169676e204d55535420626520616363657074656420616e64204e4f542070616964616d6f756e74206f6620746f6b656e206d7573742062652067726561746572207468616e207a65726f54686520676f616c206f662063616d706169676e206d75737420626520696e636c7564652072616e67652069732066726f6d203130303020746f20312e3030302e3030302e30303020746f6b656e73596f75206f6e6c792063616e20636c61696d20726566756e64207768656e2063616d706169676e7320647572696e67596f7520646f6e2774206861766520656e6f75676820746f20636c61696d20726566756e64a165627a7a723058202d8827cf8138cee0ec17e90019e99ea4a507d77bba92c9f5b1a81e5e2d5501570029",
  "source": "pragma solidity ^0.5;\nimport {SafeMath} from \"./SafeMath.sol\";\nimport {TokenSystem} from \"./TokenSystem.sol\";\n\n/// @title This contract store info about campaigns\n/// @author tuanlh\ncontract Campaigns {\n    TokenSystem token;\n    using SafeMath for uint;\n\n    /* Explaintation of campaign status\n    * During: end date < now\n    * Failed: end date >= now AND token collected < goal\n    * Succeed: end date >= now AND token collected >= goal\n    */\n    enum Status {during, failed, succeed}\n\n    /* Explaintation of campaign FINACIAL status\n    * Pending: new campaign just added. NOT allow investor fund to campaign\n    * Accepted: a campaign was verified => Allow investors fund to campaign\n    * Paid: a campaign that owner withdraw token completed => end campaign\n    */\n    enum FinStatus {pending, accepted, paid}\n\n    struct CampaignInfo {\n        string name;\n        address owner;\n        uint startDate;\n        uint endDate;\n        uint goal;\n        uint collected;\n        FinStatus finstt;\n        address[] investors;\n        mapping(address => uint) investment;\n        mapping(address => bool) isInvest;\n    }\n\n    CampaignInfo[] internal campaigns;\n    mapping(address => uint[]) internal investors; //mapping investors to campaigns id\n\n    event Added(uint id);\n    event Accepted(uint id);\n    event Invested(uint id, address invester, uint token);\n    event Refund(uint id, address investor, uint token);\n    event Paid(uint id, address ownerCampaign, uint token);\n\n     /* -- Constructor -- */\n    //\n    /// @notice Constructor to create a campaign contract\n    /// @dev This contract MUST be run after TokenSystem\n    /// @param _tokenAddr is address of token contract\n    constructor(TokenSystem _tokenAddr) public {\n        token = _tokenAddr;\n    }\n    \n    /// @notice Get properties of a campaign\n    /// @param _index is index of campaigns array\n    /// @return object {name, startDate, endDate, goal, collected, owner, finStatus, status}\n    function getInfo(uint _index) public view \n    returns(\n        string memory name, \n        uint startDate, \n        uint endDate, \n        uint goal,\n        uint collected,\n        address owner,\n        FinStatus finStatus,\n        Status status\n        ) {\n        name = campaigns[_index].name;\n        startDate = campaigns[_index].startDate;\n        endDate = campaigns[_index].endDate;\n        goal = campaigns[_index].goal;\n        collected = campaigns[_index].collected;\n        owner = campaigns[_index].owner;\n        finStatus = campaigns[_index].finstt;\n        status = getStatus(_index);\n    }\n\n    /// @notice Create a campaign\n    /// @dev Add an element to variable campaigns array\n    /// @param _name is campaign name\n    /// @param _days is deadline for fundraising of a campaign. Min: 15 days\n    /// @param _goal is goal of a campaign. Min-Max: 100.000-1.000.000.000\n    function createCampaign(\n        string memory _name,\n        uint _days, \n        uint _goal)\n    public {\n        // To testing, you can comment following lines\n        // require(\n        //     _goal >= 100000 && _goal <= 1000000000, \n        //     \"The goal of campaign must be include range is from 100.000 to 1.000.000.000 tokens\"\n        // );\n        require(\n            _goal >= 1000 && _goal <= 1000000000, \n            \"The goal of campaign must be include range is from 1000 to 1.000.000.000 tokens\"\n        );\n\n        // To testing, you can comment following lines\n        //require(\n        //    _days >= 15,\n        //    \"The minimum fundraising time for the campaign is 15 days.\"\n        //);\n\n        //In current Testing, default set Finacial Status is Accepted\n\n        CampaignInfo memory temp;\n        temp.name = _name;\n        temp.owner = msg.sender;\n        temp.startDate = now;\n        temp.endDate = now + _days * 60;\n        temp.goal = _goal;\n        temp.collected = 0;\n        temp.finstt = FinStatus.accepted;\n        campaigns.push(temp);\n        emit Added(campaigns.length - 1);\n    }\n\n    /// @notice Count how many people invested into a campaign\n    /// @param _i is index of campaign\n    /// @return Number of investors of a campaign\n    function getNumberOfInvestors(uint _i) public view returns(uint result) {\n        result = campaigns[_i].investors.length;\n    }\n\n    /// @notice Accept a campaign is allow all investor can invest to that campaign\n    /// @param _i is index of campaigns array\n    function acceptCampaign(uint _i) public {\n        require(\n            token.isAdmin(msg.sender),\n            \"You MUST be verifier\");\n        campaigns[_i].finstt = FinStatus.accepted;\n        emit Accepted(_i);\n    }\n\n    /// @notice Allow user can buy token of campaign\n    /// @param _i is index of campaigns array\n    /// @param _token is amount of token that you buy\n    /// function will call token.fundToCampaign to verify\n    function invest(uint _i, uint _token) public {\n        CampaignInfo memory campaign = campaigns[_i];\n        require(\n            _token > 0,\n            \"amount of token must be greater than zero\"\n        );\n        require(\n            now <= campaign.endDate,\n            \"Campaign is ended\"\n        );\n        require(\n            campaign.collected < campaign.goal,\n            \"Campaign is reached goal\"\n        );\n        require(\n            campaign.collected + _token <= campaign.goal,\n            \"Amount without goal of campaign\"\n        );\n        require(\n            campaigns[_i].finstt == FinStatus.accepted,\n            \"This campaign MUST be accepted and NOT paid\"\n        );\n        require(\n            _token <= (token.balances(msg.sender) - getTotalInvest(msg.sender)),\n            \"You don't have enough token\");\n        \n        campaigns[_i].investment[msg.sender] = campaigns[_i].investment[msg.sender].add(_token);\n        if (!campaigns[_i].isInvest[msg.sender]) {\n            investors[msg.sender].push(_i);\n            campaigns[_i].isInvest[msg.sender] = true;\n            campaigns[_i].investors.push(msg.sender);\n        }\n        campaigns[_i].collected = campaigns[_i].collected.add(_token);\n        emit Invested(_i, msg.sender, _token);\n    }\n\n    /// @notice Allow investor can claim refund when campaign during\n    /// when campaign failed, you don't need claim refund, because it is automatic proccess\n    /// @param _i is index of campaigns array\n    /// @param _token Amount investor want withdraw\n    function claimRefund(uint _i, uint _token) public {\n        require(\n            _token > 0,\n            \"amount of token must be greater than zero\"\n        );\n        require(\n            campaigns[_i].investment[msg.sender] >= _token,\n            \"You don't have enough to claim refund\"\n        );\n        require(\n            getStatus(_i) == Status.during,\n            \"You only can claim refund when campaigns during\"\n        );\n\n        campaigns[_i].investment[msg.sender] = campaigns[_i].investment[msg.sender].sub(_token);\n        campaigns[_i].collected = campaigns[_i].collected.sub(_token);\n        emit Refund(_i, msg.sender, _token);\n    }\n    \n    /// @notice Handle after campaign. Only allow campaign owner run this function\n    /// @dev If campaign is succeed, fundraiser will receive funds\n    /// @param _i is index of campaign array\n    function endCampaign(uint _i) public {\n        require(\n            msg.sender == campaigns[_i].owner,\n            \"This function MUST be run by owner\"\n        );\n        require(\n            getStatus(_i) == Status.succeed,\n            \"Campaign MUST be succeed\"\n        );\n        require(\n            campaigns[_i].finstt != FinStatus.pending, \n            \"Campaign MUST be verify\");\n        require(\n            campaigns[_i].finstt != FinStatus.paid,\n            \"Campaign already paid\"\n        );\n\n        // Important: set status PAID before call external function to withdraw\n        campaigns[_i].finstt = FinStatus.paid; \n        if(!token.withdrawFromCampaign(_i, msg.sender, campaigns[_i].collected)) {\n            campaigns[_i].finstt = FinStatus.accepted;\n        } else {\n            emit Paid(_i, msg.sender, campaigns[_i].collected);\n        }\n    }\n\n    /// @notice Get token invested for a campaign of investor\n    /// @param _i is index of campaigns\n    /// @param _addr is address of investor that you want to check\n    /// @return Number of token that investor invested for a campaign\n    function getInvest(uint _i, address _addr) public view returns(uint) {\n        return campaigns[_i].investment[_addr];\n    }\n\n    /// @notice Get all amount of investor that invest to campaigns\n    /// @dev Get all amount of investor that invested and have checked campaign failed or succeed\n    /// If campaign is failed, NOT count that token\n    /// @param _addr is address that you want check to amount of invest\n    /// @return Number of token that invested all campaigns\n    function getTotalInvest(address _addr) public view returns(uint) {\n        uint tokens = 0;\n        uint[] memory campaignsOf = investors[_addr];\n        for (uint i=0; i < campaignsOf.length; i++) {\n            if (getStatus(i) != Status.failed) {\n                if (campaigns[i].investment[_addr] > 0) {\n                    tokens = tokens.add(campaigns[i].investment[_addr]);\n                }\n            }\n        }\n        return tokens;\n    }\n\n    /// @notice Get status of a campaign\n    /// @param _i is index of campaigns array\n    /// @return {0 => during, 1 => failed, 2 => succeed, 3 => paid}\n    function getStatus(uint _i) public view returns(Status) {\n        if (now < campaigns[_i].endDate) {\n            return Status.during;\n        } else {\n            if (campaigns[_i].collected < campaigns[_i].goal) {\n                return Status.failed;\n            } else {\n                return Status.succeed;\n            }\n        }\n    }\n\n    /// @notice Get financial status of campaign\n    /// @param _i is index of campaign\n    /// @return {0 => pending, 1 => accepted, 2 => paid}\n    function getFinStatus(uint _i) public view returns(FinStatus) {\n        return campaigns[_i].finstt;\n    }\n\n    /// @notice Get number of campaigns\n    /// @return Number of campaigns\n    function length() public view returns(uint) {\n        return campaigns.length;\n    }\n}",
  "sourcePath": "/home/tung123/crowdfunding-dapp/contracts/Campaigns.sol",
  "compiler": {
    "name": "solc",
    "version": "0.5.8+commit.23d335f2.Emscripten.clang"
  },
  "schemaVersion": "3.0.11",
  "updatedAt": "2019-06-16T07:54:24.304Z",
  "devdoc": {
    "author": "tuanlh",
    "methods": {
      "acceptCampaign(uint256)": {
        "params": {
          "_i": "is index of campaigns array"
        }
      },
      "claimRefund(uint256,uint256)": {
        "params": {
          "_i": "is index of campaigns array",
          "_token": "Amount investor want withdraw"
        }
      },
      "constructor": {
        "details": "This contract MUST be run after TokenSystem",
        "params": {
          "_tokenAddr": "is address of token contract"
        }
      },
      "createCampaign(string,uint256,uint256)": {
        "details": "Add an element to variable campaigns array",
        "params": {
          "_days": "is deadline for fundraising of a campaign. Min: 15 days",
          "_goal": "is goal of a campaign. Min-Max: 100.000-1.000.000.000",
          "_name": "is campaign name"
        }
      },
      "endCampaign(uint256)": {
        "details": "If campaign is succeed, fundraiser will receive funds",
        "params": {
          "_i": "is index of campaign array"
        }
      },
      "getFinStatus(uint256)": {
        "params": {
          "_i": "is index of campaign"
        },
        "return": "{0 => pending, 1 => accepted, 2 => paid}"
      },
      "getInfo(uint256)": {
        "params": {
          "_index": "is index of campaigns array"
        },
        "return": "object {name, startDate, endDate, goal, collected, owner, finStatus, status}"
      },
      "getInvest(uint256,address)": {
        "params": {
          "_addr": "is address of investor that you want to check",
          "_i": "is index of campaigns"
        },
        "return": "Number of token that investor invested for a campaign"
      },
      "getNumberOfInvestors(uint256)": {
        "params": {
          "_i": "is index of campaign"
        },
        "return": "Number of investors of a campaign"
      },
      "getStatus(uint256)": {
        "params": {
          "_i": "is index of campaigns array"
        },
        "return": "{0 => during, 1 => failed, 2 => succeed, 3 => paid}"
      },
      "getTotalInvest(address)": {
        "details": "Get all amount of investor that invested and have checked campaign failed or succeed If campaign is failed, NOT count that token",
        "params": {
          "_addr": "is address that you want check to amount of invest"
        },
        "return": "Number of token that invested all campaigns"
      },
      "invest(uint256,uint256)": {
        "params": {
          "_i": "is index of campaigns array",
          "_token": "is amount of token that you buy function will call token.fundToCampaign to verify"
        }
      },
      "length()": {
        "return": "Number of campaigns"
      }
    },
    "title": "This contract store info about campaigns"
  },
  "userdoc": {
    "methods": {
      "acceptCampaign(uint256)": {
        "notice": "Accept a campaign is allow all investor can invest to that campaign"
      },
      "claimRefund(uint256,uint256)": {
        "notice": "Allow investor can claim refund when campaign during when campaign failed, you don't need claim refund, because it is automatic proccess"
      },
      "constructor": "Constructor to create a campaign contract",
      "createCampaign(string,uint256,uint256)": {
        "notice": "Create a campaign"
      },
      "endCampaign(uint256)": {
        "notice": "Handle after campaign. Only allow campaign owner run this function"
      },
      "getFinStatus(uint256)": {
        "notice": "Get financial status of campaign"
      },
      "getInfo(uint256)": {
        "notice": "Get properties of a campaign"
      },
      "getInvest(uint256,address)": {
        "notice": "Get token invested for a campaign of investor"
      },
      "getNumberOfInvestors(uint256)": {
        "notice": "Count how many people invested into a campaign"
      },
      "getStatus(uint256)": {
        "notice": "Get status of a campaign"
      },
      "getTotalInvest(address)": {
        "notice": "Get all amount of investor that invest to campaigns"
      },
      "invest(uint256,uint256)": {
        "notice": "Allow user can buy token of campaign"
      },
      "length()": {
        "notice": "Get number of campaigns"
      }
    }
  }
}