{
  "contractName": "TokenSystem",
  "abi": [
    {
      "inputs": [],
      "payable": false,
      "stateMutability": "nonpayable",
      "type": "constructor"
    },
    {
      "payable": true,
      "stateMutability": "payable",
      "type": "fallback"
    },
    {
      "anonymous": false,
      "inputs": [
        {
          "indexed": false,
          "name": "from",
          "type": "address"
        },
        {
          "indexed": false,
          "name": "amount",
          "type": "uint256"
        }
      ],
      "name": "Deposit",
      "type": "event"
    },
    {
      "anonymous": false,
      "inputs": [
        {
          "indexed": false,
          "name": "to",
          "type": "address"
        },
        {
          "indexed": false,
          "name": "amount",
          "type": "uint256"
        }
      ],
      "name": "Withdraw",
      "type": "event"
    },
    {
      "constant": true,
      "inputs": [],
      "name": "granularity",
      "outputs": [
        {
          "name": "",
          "type": "uint256"
        }
      ],
      "payable": false,
      "stateMutability": "view",
      "type": "function"
    },
    {
      "constant": true,
      "inputs": [
        {
          "name": "_addr",
          "type": "address"
        }
      ],
      "name": "balances",
      "outputs": [
        {
          "name": "",
          "type": "uint256"
        }
      ],
      "payable": false,
      "stateMutability": "view",
      "type": "function"
    },
    {
      "constant": true,
      "inputs": [
        {
          "name": "_addr",
          "type": "address"
        }
      ],
      "name": "getBalance",
      "outputs": [
        {
          "name": "",
          "type": "uint256"
        }
      ],
      "payable": false,
      "stateMutability": "view",
      "type": "function"
    },
    {
      "constant": true,
      "inputs": [],
      "name": "getMyBalance",
      "outputs": [
        {
          "name": "",
          "type": "uint256"
        }
      ],
      "payable": false,
      "stateMutability": "view",
      "type": "function"
    },
    {
      "constant": false,
      "inputs": [],
      "name": "deposit",
      "outputs": [],
      "payable": true,
      "stateMutability": "payable",
      "type": "function"
    },
    {
      "constant": false,
      "inputs": [
        {
          "name": "_amountToken",
          "type": "uint256"
        }
      ],
      "name": "withdraw",
      "outputs": [
        {
          "name": "",
          "type": "bool"
        }
      ],
      "payable": false,
      "stateMutability": "nonpayable",
      "type": "function"
    },
    {
      "constant": false,
      "inputs": [
        {
          "name": "_campaign",
          "type": "address"
        }
      ],
      "name": "updateCampaignAddr",
      "outputs": [],
      "payable": false,
      "stateMutability": "nonpayable",
      "type": "function"
    },
    {
      "constant": false,
      "inputs": [
        {
          "name": "_i",
          "type": "uint256"
        },
        {
          "name": "_owner",
          "type": "address"
        },
        {
          "name": "_tokenCollected",
          "type": "uint256"
        }
      ],
      "name": "withdrawFromCampaign",
      "outputs": [
        {
          "name": "",
          "type": "bool"
        }
      ],
      "payable": false,
      "stateMutability": "nonpayable",
      "type": "function"
    },
    {
      "constant": true,
      "inputs": [
        {
          "name": "_addr",
          "type": "address"
        }
      ],
      "name": "isAdmin",
      "outputs": [
        {
          "name": "",
          "type": "bool"
        }
      ],
      "payable": false,
      "stateMutability": "view",
      "type": "function"
    }
  ],
  "bytecode": "0x608060405234801561001057600080fd5b5033600160006101000a81548173ffffffffffffffffffffffffffffffffffffffff021916908373ffffffffffffffffffffffffffffffffffffffff16021790555066038d7ea4c6800060028190555060006004819055506111e5806100776000396000f3fe6080604052600436106100865760003560e01c80634c738909116100595780634c7389091461022e578063556f0dc714610259578063beccdfe714610284578063d0e30db0146102d5578063f8b2cb4f146102df57610086565b80631fa207ee1461009057806324d7806c1461010d57806327e235e3146101765780632e1a7d4d146101db575b61008e610344565b005b34801561009c57600080fd5b506100f3600480360360608110156100b357600080fd5b8101908080359060200190929190803573ffffffffffffffffffffffffffffffffffffffff169060200190929190803590602001909291905050506104e6565b604051808215151515815260200191505060405180910390f35b34801561011957600080fd5b5061015c6004803603602081101561013057600080fd5b81019080803573ffffffffffffffffffffffffffffffffffffffff1690602001909291905050506109a9565b604051808215151515815260200191505060405180910390f35b34801561018257600080fd5b506101c56004803603602081101561019957600080fd5b81019080803573ffffffffffffffffffffffffffffffffffffffff169060200190929190505050610a03565b6040518082815260200191505060405180910390f35b3480156101e757600080fd5b50610214600480360360208110156101fe57600080fd5b8101908080359060200190929190505050610a60565b604051808215151515815260200191505060405180910390f35b34801561023a57600080fd5b50610243610d69565b6040518082815260200191505060405180910390f35b34801561026557600080fd5b5061026e610d79565b6040518082815260200191505060405180910390f35b34801561029057600080fd5b506102d3600480360360208110156102a757600080fd5b81019080803573ffffffffffffffffffffffffffffffffffffffff169060200190929190505050610d83565b005b6102dd610344565b005b3480156102eb57600080fd5b5061032e6004803603602081101561030257600080fd5b81019080803573ffffffffffffffffffffffffffffffffffffffff169060200190929190505050610e6c565b6040518082815260200191505060405180910390f35b6000341161039d576040517f08c379a00000000000000000000000000000000000000000000000000000000081526004018080602001828103825260268152602001806111496026913960400191505060405180910390fd5b6103a63461100d565b6103f834600360003373ffffffffffffffffffffffffffffffffffffffff1673ffffffffffffffffffffffffffffffffffffffff1681526020019081526020016000205461107490919063ffffffff16565b600360003373ffffffffffffffffffffffffffffffffffffffff1673ffffffffffffffffffffffffffffffffffffffff168152602001908152602001600020819055506104503460045461107490919063ffffffff16565b6004819055506004543073ffffffffffffffffffffffffffffffffffffffff1631101561047957fe5b7fe1fffcc4923d04b559f4d29a8bfc6cda04eb5b0d3c460751c2402c5c5cc9109c3334604051808373ffffffffffffffffffffffffffffffffffffffff1673ffffffffffffffffffffffffffffffffffffffff1681526020018281526020019250505060405180910390a1565b60006104f133611093565b610546576040517f08c379a00000000000000000000000000000000000000000000000000000000081526004018080602001828103825260248152602001806111966024913960400191505060405180910390fd5b3373ffffffffffffffffffffffffffffffffffffffff166000809054906101000a900473ffffffffffffffffffffffffffffffffffffffff1673ffffffffffffffffffffffffffffffffffffffff1614610608576040517f08c379a000000000000000000000000000000000000000000000000000000000815260040180806020018281038252601f8152602001807f53656e64657220746869732066756e6374696f6e20697320696e76616c69640081525060200191505060405180910390fd5b6000821161067e576040517f08c379a000000000000000000000000000000000000000000000000000000000815260040180806020018281038252601b8152602001807f416d6f756e74204d5553542062652067726561746572207a65726f000000000081525060200191505060405180910390fd5b6001600281111561068b57fe5b6000809054906101000a900473ffffffffffffffffffffffffffffffffffffffff1673ffffffffffffffffffffffffffffffffffffffff16636d7152fb866040518263ffffffff1660e01b81526004018082815260200191505060206040518083038186803b1580156106fd57600080fd5b505afa158015610711573d6000803e3d6000fd5b505050506040513d602081101561072757600080fd5b8101908080519060200190929190505050600281111561074357fe5b10156107b7576040517f08c379a00000000000000000000000000000000000000000000000000000000081526004018080602001828103825260198152602001807f43616d706169676e204d5553542062652061636365707465640000000000000081525060200191505060405180910390fd5b6002808111156107c357fe5b6000809054906101000a900473ffffffffffffffffffffffffffffffffffffffff1673ffffffffffffffffffffffffffffffffffffffff16635c622a0e866040518263ffffffff1660e01b81526004018082815260200191505060206040518083038186803b15801561083557600080fd5b505afa158015610849573d6000803e3d6000fd5b505050506040513d602081101561085f57600080fd5b8101908080519060200190929190505050600281111561087b57fe5b10156108ef576040517f08c379a00000000000000000000000000000000000000000000000000000000081526004018080602001828103825260188152602001807f43616d706169676e204d5553542062652073756363656564000000000000000081525060200191505060405180910390fd5b6000610906600254846110a690919063ffffffff16565b905061095a81600360008773ffffffffffffffffffffffffffffffffffffffff1673ffffffffffffffffffffffffffffffffffffffff1681526020019081526020016000205461107490919063ffffffff16565b600360008673ffffffffffffffffffffffffffffffffffffffff1673ffffffffffffffffffffffffffffffffffffffff1681526020019081526020016000208190555060019150509392505050565b60008173ffffffffffffffffffffffffffffffffffffffff16600160009054906101000a900473ffffffffffffffffffffffffffffffffffffffff1673ffffffffffffffffffffffffffffffffffffffff16149050919050565b6000610a59600254600360008573ffffffffffffffffffffffffffffffffffffffff1673ffffffffffffffffffffffffffffffffffffffff168152602001908152602001600020546110e090919063ffffffff16565b9050919050565b6000808211610aba576040517f08c379a00000000000000000000000000000000000000000000000000000000081526004018080602001828103825260268152602001806111496026913960400191505060405180910390fd5b610ac2610d69565b821115610b37576040517f08c379a000000000000000000000000000000000000000000000000000000000815260040180806020018281038252601b8152602001807f596f7520646f6e2774206861766520656e6f75676820746f6b656e000000000081525060200191505060405180910390fd5b6000610b4e600254846110a690919063ffffffff16565b9050610ba281600360003373ffffffffffffffffffffffffffffffffffffffff1673ffffffffffffffffffffffffffffffffffffffff1681526020019081526020016000205461110690919063ffffffff16565b600360003373ffffffffffffffffffffffffffffffffffffffff1673ffffffffffffffffffffffffffffffffffffffff16815260200190815260200160002081905550610bfa8160045461110690919063ffffffff16565b6004819055503373ffffffffffffffffffffffffffffffffffffffff166108fc829081150290604051600060405180830381858888f19350505050610cf357610c8b81600360003373ffffffffffffffffffffffffffffffffffffffff1673ffffffffffffffffffffffffffffffffffffffff1681526020019081526020016000205461107490919063ffffffff16565b600360003373ffffffffffffffffffffffffffffffffffffffff1673ffffffffffffffffffffffffffffffffffffffff16815260200190815260200160002081905550610ce38160045461107490919063ffffffff16565b6004819055506000915050610d64565b7f884edad9ce6fa2440d8a54cc123490eb96d2768479d49ff9c7366125a94243643382604051808373ffffffffffffffffffffffffffffffffffffffff1673ffffffffffffffffffffffffffffffffffffffff1681526020018281526020019250505060405180910390a160019150505b919050565b6000610d7433610e6c565b905090565b6000600254905090565b600160009054906101000a900473ffffffffffffffffffffffffffffffffffffffff1673ffffffffffffffffffffffffffffffffffffffff163373ffffffffffffffffffffffffffffffffffffffff1614610e29576040517f08c379a00000000000000000000000000000000000000000000000000000000081526004018080602001828103825260228152602001806111276022913960400191505060405180910390fd5b806000806101000a81548173ffffffffffffffffffffffffffffffffffffffff021916908373ffffffffffffffffffffffffffffffffffffffff16021790555050565b600080600360003373ffffffffffffffffffffffffffffffffffffffff1673ffffffffffffffffffffffffffffffffffffffff168152602001908152602001600020541415610ebe5760009050611008565b6000610f14600254600360003373ffffffffffffffffffffffffffffffffffffffff1673ffffffffffffffffffffffffffffffffffffffff168152602001908152602001600020546110e090919063ffffffff16565b90506110016000809054906101000a900473ffffffffffffffffffffffffffffffffffffffff1673ffffffffffffffffffffffffffffffffffffffff1663f1b70b70856040518263ffffffff1660e01b8152600401808273ffffffffffffffffffffffffffffffffffffffff1673ffffffffffffffffffffffffffffffffffffffff16815260200191505060206040518083038186803b158015610fb757600080fd5b505afa158015610fcb573d6000803e3d6000fd5b505050506040513d6020811015610fe157600080fd5b81019080805190602001909291905050508261110690919063ffffffff16565b9050809150505b919050565b6000600254828161101a57fe5b0614611071576040517f08c379a000000000000000000000000000000000000000000000000000000000815260040180806020018281038252602781526020018061116f6027913960400191505060405180910390fd5b50565b60008082840190508381101561108957600080fd5b8091505092915050565b600080823b905060008111915050919050565b6000808314156110b957600090506110da565b60008284029050828482816110ca57fe5b04146110d557600080fd5b809150505b92915050565b60008082116110ee57600080fd5b60008284816110f957fe5b0490508091505092915050565b60008282111561111557600080fd5b60008284039050809150509291505056fe596f75204d555354206265206f776e6572206f66207468697320636f6e7472616374416d6f756e7420746f206465706f736974204d5553542062652067726561746572207a65726f416d6f756e74206973206e6f742061206d756c7469706c65206f66206772616e75616c7269747952756e207468697320636f6e7472616374204d555354206265206120636f6e7472616374a165627a7a723058203ec99c3c6b1b3d599cc26898c6f405b937172781e9c19dd2f1f21f6326a691300029",
  "source": "pragma solidity ^0.5;\nimport {SafeMath} from \"./SafeMath.sol\";\nimport {Campaigns} from \"./Campaigns.sol\";\n\n/// @title This is contract for hold all token of users in system\n/// @author tuanlh\ncontract TokenSystem {\n    using SafeMath for uint;\n\n    struct Investment {\n        uint id;\n        uint amount;\n    }\n\n    Campaigns internal campaigns;\n    address internal admin;\n    uint internal mGranularity; //Minium value of Wei \n    mapping(address => uint) internal mBalances; // wei\n    uint internal mTotalBalances;\n    mapping(address => Investment[]) investment;\n\n    event Deposit(address from, uint amount);\n    event Withdraw(address to, uint amount);\n\n    /* -- Constructor -- */\n    //\n    /// @notice Constructor to create a TokenSystem\n    /// @dev This contract is deployed by system and only once deploy\n    /// set Granularity is the minimum transferable chunk\n    /// Or it is the minimum value of wei corresponds to a token\n    /// Or it is price of token\n    /// 1 token = mGranularity (wei)\n    /// Set admin = msg.sender (runner contract)\n    constructor() public {    \n        admin = msg.sender;\n        mGranularity = 10**15; // 1 ETH = 1000 tokens\n        mTotalBalances = 0;\n    }\n    \n    /// @dev granularity can be understood as the price of a token. 1 token = granularity form as wei\n    /// @return the granularity of the token\n    function granularity() public view returns (uint) { return mGranularity; }\n\n    /// @dev Get token of user without campaigns\n    /// @param _addr is address of user that you want check token\n    /// @return Number of token\n    function balances(address _addr) public view returns(uint) {\n        return mBalances[_addr].div(mGranularity);\n    }\n\n    /// @notice get my balance (form as Token) of msg.sender with campaign\n    /// @param _addr is address of user\n    /// @return Result is number of token\n    function getBalance(address _addr) public view returns (uint) {\n        if (mBalances[msg.sender] == 0) {\n            return 0;\n        }\n        uint balance;\n        balance = mBalances[msg.sender].div(mGranularity);\n        balance = balance.sub(campaigns.getTotalInvest(_addr));\n        return balance;\n    }\n\n    /// @dev Call function getBalance() with params is msg.sender\n    /// @return Number of token of sender\n    function getMyBalance() public view returns (uint) {\n        return getBalance(msg.sender);\n    }\n\n    /// @notice Allow user transfer balances to this contract\n    /// @dev This function will receive balance that user send into contract and store in contract\n    /// value will be stored in the mBalances variable\n    /// Amount is msg.value form as Wei (1 ETH = 10^18 wei)\n    function deposit() public payable {\n        require(\n            msg.value > 0,\n            \"Amount to deposit MUST be greater zero\"\n        );\n        requireMultiple(msg.value);\n        mBalances[msg.sender] = mBalances[msg.sender].add(msg.value);\n        mTotalBalances = mTotalBalances.add(msg.value);\n        assert(address(this).balance >= mTotalBalances);\n        emit Deposit(msg.sender, msg.value);\n    }\n    \n    /// @notice This function allow user withdraw balances in contract to ETH\n    /// @dev Withdraw token in system to ETH. (Wei = token * mGranularity)\n    /// @param _amountToken number of token that you want withdraw\n    /// amount of token MUST be multiple with mGranularity before send\n    /// @return `true` if withdraw process successful\n    function withdraw(uint _amountToken) public returns (bool) {\n        require(\n            _amountToken > 0,\n            \"Amount to deposit MUST be greater zero\"\n        );\n        require(\n            _amountToken <= getMyBalance(),\n            \"You don't have enough token\"\n        );\n        uint amount = _amountToken.mul(mGranularity);\n        // It is important to subtract amount before real transfer\n        // because the recipient can call this function again as part of the receiving call\n        // before `send` returns.\n        mBalances[msg.sender] = mBalances[msg.sender].sub(amount);\n        mTotalBalances = mTotalBalances.sub(amount);\n        if (!msg.sender.send(amount)) {\n            mBalances[msg.sender] = mBalances[msg.sender].add(amount);\n            mTotalBalances = mTotalBalances.add(amount);\n            return false;\n        }\n        emit Withdraw(msg.sender, amount);\n        return true;\n        \n    }\n\n     /// @dev This function add address of campaign contract\n    /// @param _campaign is an address\n    function updateCampaignAddr(Campaigns _campaign) public {\n        require(\n            msg.sender == admin, \n            \"You MUST be owner of this contract\");\n        campaigns = _campaign;\n    }\n\n    /// @notice Allow campaign owner (startups) can withdraw token from a succeed campaign\n    /// @dev This function MUST be run by a contract\n    /// @param _i is index of campaign\n    /// @param _owner is owner of campaign\n    /// @param _tokenCollected total token was sold in campaign\n    /// @return `true` if withdraw process successful\n    function withdrawFromCampaign(uint _i, address _owner, uint _tokenCollected) public\n    returns(bool)\n    {\n        require(\n            isContractAddress(msg.sender),\n            \"Run this contract MUST be a contract\"\n        );\n        require(\n            address(campaigns) == msg.sender,\n            \"Sender this function is invalid\"\n        );\n        require(\n            _tokenCollected > 0,\n            \"Amount MUST be greater zero\"\n        );\n        require(\n            campaigns.getFinStatus(_i) >= Campaigns.FinStatus.accepted,\n            \"Campaign MUST be accepted\"\n        );\n        require(\n            campaigns.getStatus(_i) >= Campaigns.Status.succeed,\n            \"Campaign MUST be succeed\"\n        );\n\n        uint _amount = _tokenCollected.mul(mGranularity);\n        mBalances[_owner] = mBalances[_owner].add(_amount);\n        return true;\n    }\n\n    /// @notice check wether is admin\n    /// @dev This function is called by a contract to verify address of sender\n    /// @param _addr is address that you want to check\n    /// @return `true` if _addr == admin\n    function isAdmin(address _addr) public view returns(bool) {\n        return admin == _addr;\n    }\n\n    /* -- Helper Functions -- */\n    //\n    /// @notice Internal function that ensures `_amount` is multiple of the granularity\n    /// @param _amount The quantity that want's to be checked\n    function requireMultiple(uint _amount) internal view {\n        require(_amount % mGranularity == 0, \"Amount is not a multiple of granualrity\");\n    }\n\n    /// @notice Check whether an address is an address belong to contract or not.\n    /// @param _addr Address of the contract that has to be checked\n    /// @return `true` if `_addr` is a contract address\n    function isContractAddress(address _addr) internal view returns(bool) {\n        uint size;\n        assembly { size := extcodesize(_addr) } // solium-disable-line security/no-inline-assembly\n        return size > 0;\n    }\n\n    function () external payable {deposit();}\n}",
  "sourcePath": "/home/tung123/crowdfunding-dapp/contracts/TokenSystem.sol",
  "compiler": {
    "name": "solc",
    "version": "0.5.8+commit.23d335f2.Emscripten.clang"
  },
  "schemaVersion": "3.0.11",
  "updatedAt": "2019-06-16T07:54:24.267Z",
  "devdoc": {
    "author": "tuanlh",
    "methods": {
      "balances(address)": {
        "details": "Get token of user without campaigns",
        "params": {
          "_addr": "is address of user that you want check token"
        },
        "return": "Number of token"
      },
      "constructor": {
        "details": "This contract is deployed by system and only once deploy set Granularity is the minimum transferable chunk Or it is the minimum value of wei corresponds to a token Or it is price of token 1 token = mGranularity (wei) Set admin = msg.sender (runner contract)"
      },
      "deposit()": {
        "details": "This function will receive balance that user send into contract and store in contract value will be stored in the mBalances variable Amount is msg.value form as Wei (1 ETH = 10^18 wei)"
      },
      "getBalance(address)": {
        "params": {
          "_addr": "is address of user"
        },
        "return": "Result is number of token"
      },
      "getMyBalance()": {
        "details": "Call function getBalance() with params is msg.sender",
        "return": "Number of token of sender"
      },
      "granularity()": {
        "details": "granularity can be understood as the price of a token. 1 token = granularity form as wei",
        "return": "the granularity of the token"
      },
      "isAdmin(address)": {
        "details": "This function is called by a contract to verify address of sender",
        "params": {
          "_addr": "is address that you want to check"
        },
        "return": "`true` if _addr == admin"
      },
      "updateCampaignAddr(address)": {
        "details": "This function add address of campaign contract",
        "params": {
          "_campaign": "is an address"
        }
      },
      "withdraw(uint256)": {
        "details": "Withdraw token in system to ETH. (Wei = token * mGranularity)",
        "params": {
          "_amountToken": "number of token that you want withdraw amount of token MUST be multiple with mGranularity before send"
        },
        "return": "`true` if withdraw process successful"
      },
      "withdrawFromCampaign(uint256,address,uint256)": {
        "details": "This function MUST be run by a contract",
        "params": {
          "_i": "is index of campaign",
          "_owner": "is owner of campaign",
          "_tokenCollected": "total token was sold in campaign"
        },
        "return": "`true` if withdraw process successful"
      }
    },
    "title": "This is contract for hold all token of users in system"
  },
  "userdoc": {
    "methods": {
      "constructor": "Constructor to create a TokenSystem",
      "deposit()": {
        "notice": "Allow user transfer balances to this contract"
      },
      "getBalance(address)": {
        "notice": "get my balance (form as Token) of msg.sender with campaign"
      },
      "isAdmin(address)": {
        "notice": "check wether is admin"
      },
      "withdraw(uint256)": {
        "notice": "This function allow user withdraw balances in contract to ETH"
      },
      "withdrawFromCampaign(uint256,address,uint256)": {
        "notice": "Allow campaign owner (startups) can withdraw token from a succeed campaign"
      }
    }
  }
}